S0190000454550524F4D5F536D617274576865656C732E6D6F74D2
S113000000400020B50400001D0500001D0500008F
S11300101D0500001D0500001D0500000000000076
S11300200000000000000000000000001D050000AA
S11300301D050000000000001D050000E95F000030
S1130040E5300000EF300000F9300000033100001B
S11300500D31000017310000213100002B31000068
S1130060353100003F3100004931000053310000B8
S11300705D31000067310000713100007B31000008
S1130080853100001D0500001D0500001D05000050
S11300901D0500001D0500001D0500001D050000D4
S11300A0434600004D4600001D0500001D050000EC
S11300B01D0500001D0500001D0500001D050000B4
S11300C01D0500001D0500001D0500001D050000A4
S11300D01D0500001D0500001D0500001D05000094
S11300E01D0500001D0500001D0500001D05000084
S11300F01D0500001D0500001D0500001D05000074
S1130100615F00001D0500001D0500001D050000C5
S11301101D0500001D0500001D0500001D05000053
S11301201D0500001D0500001D0500001D05000043
S11301301D0500001D0500001D0500001D05000033
S11301401D0500001D0500001D0500001D05000023
S11303F01D0500001D0500001D050000FFFFFFFF97
S1130400FFFFFFFFFFFFFFFFFFFFFFFFFE7FFFFF79
S1130410044B05481B1A062B02D9044B03B1184799
S1130420704700BFE798FF1FE498FF1F000000001B
S113043005490648091A891001EBD171491002D007
S1130440034B03B118477047E498FF1FE498FF1F5C
S11304500000000010B5064C237843B9FFF7D8FF1D
S1130460044B13B10448AFF300800123237010BD83
S113047000000020000000006C76000008B5084B66
S11304801BB108490848AFF300800848036813B952
S1130490BDE80840CCE7064B002BF9D09847F7E7B6
S11304A000000000040000206C760000E098FF1FAC
S11304B00000000072B64FF000014FF000024FF050
S11304C000034FF000044FF000054FF000064FF01A
S11304D00007B846B946BA46BB46BC460A490B4A69
S11304E0521A013A05DD0020042308601944043A35
S11304F0FBDA07488546074880470748804762B6C5
S113050005F05CFDFEE700000090FF1F00400020A6
S113051000400020216F0000496E0000FFF7FEBF7D
S113052021B1094B5A69094B1A60704710B5084C40
S1130530084B9A882146012005F054FCA070024B18
S11305405A69024B1A6010BD00B0064094000020A6
S11305509D0000200C74000010B4114CD4F840210C
S113056022F4FF6222F0060240F2FE7303EA400026
S11305701043C4F8400149B9094AD2F8243123F49C
S1130580E023C2F824315DF8044B7047D4F82431D9
S113059023F4E02343F48033C4F82431F3E700BFA9
S11305A00060064010B50B4C02222146012005F0E4
S11305B074FC04F8010C28B102220749012004F05C
S11305C0C1FF10BD054B1A682146012004F0A4FEAA
S11305D0F2E700BF9B0000209D0000200C74000087
S11305E070B58CB0394DB5F85E40A40004F1804478
S11305F004F5CA24236843F080432360344E022266
S11306000621304605F0FCFE236843F08043236056
S113061002220721304605F0F3FEB5F8963006F5C0
S1130620D0364FF0864246F823209B0003F18043E6
S113063003F5CA231A6842F080421A60254B93E8F6
S113064007008DE807006A462349012005F034F8C5
S1130650B5F888304FF08C4246F82320B5F85A306C
S11306609B0003F1804303F5CA231A6842F08042D9
S11306701A601A6842F080421A60302200216846EB
S113068006F044FE154A0092022001908DF80800FD
S113069003238DF80B30069207938DF820008DF814
S11306A02330694605F048FD0D4A0E49002003F049
S11306B099F90D4B98800C21212002F0C7FD0022EE
S11306C00A49012004F0A4FD0CB070BD10750000AF
S11306D000B00440FC7300001C00002000900440A3
S11306E0A00000200094FF1F9400002021050000BA
S11306F0704700BF074B5B69DBB2042B06D0802B2D
S113070006D0012B0CBF0120042070470220704743
S11307100320704700E00740044BD3F8003113F086
S1130720807F1ABF024B18680020704700400640C3
S1130730DC00002010B584B00B4600293BD0444AAD
S1130740D2F8002112F0007F7DD1414AD2F8001185
S113075021F40001C2F800114FF08061C2F80011C9
S113076000213C4A1160002870D05A7A120202F427
S1130770E062197A01F007010A433548C0F8042100
S1130780DA79120102F030029979C90001F0080106
S11307900A435979890001F004010A43C0F8082189
S11307A01A79012A29D0E2B1022A32D01A68294BD7
S11307B01A60294C3BE000238DF804308DF80C308E
S11307C001228DF808208DF809208DF805208DF878
S11307D0063002238DF8073004AB204A43F8102D6D
S11307E0ADE71A7B002A14BF4FF40002002242F046
S11307F001021749C1F80021D8E71A7B002A14BF67
S11308004FF40002002242F001121149C1F8002104
S1130810CCE71A7B002A14BF4FF403024FF4403292
S113082042F001020A49C1F80021BFE7013CFFF789
S113083073FF18B9002CF9D1032005E0002C14BF74
S11308400020032000E0022004B010BD0020FBE7DC
S113085000400640DC00002088E7300000127A00E7
S1130860084BD3F8003213F0807F09D0054BD3F83E
S1130870083203F00103002B034808BF002070472F
S1130880002070470040064000127A0010B582B084
S11308900B46002938D02D4AD2F8002212F0007FEE
S11308A04FD12A4AD2F8001221F40001C2F80012F2
S11308B00021C2F80012002846D09A78120202F4ED
S11308C0E062597801F007010A432049C1F8042283
S11308D01A7802F00102C1F8082259799A791B7931
S11308E0002B14BF03230123002914BF042100217A
S11308F00B43002A14BF4FF4000200221343134A8F
S1130900C2F80032642410E000238DF80430012280
S11309108DF805208DF806308DF801208DF8022021
S113092002AB03F8082DB6E7013CFFF799FF18B9AD
S1130930002CF9D1032005E0002C14BF0020032073
S113094000E0022002B010BD0020FBE7004006409A
S1130950054BD3F8003313F0807F1DBF024BD3F84F
S1130960083302480020704700400640006CDC0257
S113097010B582B00B46002932D0294AD2F80023A0
S113098012F0007F47D1264AD2F8001321F4000167
S1130990C2F800134FF08061C2F8001300283DD064
S11309A09A78120202F4E062597801F007010A43CE
S11309B01B49C1F804231A7802F00302C1F8082382
S11309C09A795B79002B14BF01230923002A14BFF1
S11309D04FF4000200221343C1F8003364240EE0F4
S11309E001238DF8053000228DF806208DF80130A2
S11309F08DF8023002AB03F8082DBEE7013CFFF787
S1130A00A7FF18B9002CF9D1032005E0002C14BF6E
S1130A100020032000E0022002B010BD0020FBE70C
S1130A200040064008B50F4BD3F8003613F0807F22
S1130A3002D10023184608BDFFF76EFE03460028C6
S1130A40F8D00849D1F80826C2F302220132B0FBDB
S1130A50F2F3D1F80826C2F30442103203FB02F386
S1130A605B08E7E70040064010B584B00C4699B136
S1130A703D4BD3F8003613F0007F72D13A4BD3F8D4
S1130A80002622F40002C3F800264FF08062C3F867
S1130A900026A0B9002065E000238DF804308DF80D
S1130AA00B3001228DF808208DF809208DF80530CF
S1130AB007228DF806208DF8073001ACD8E7FFF740
S1130AC02BFE63791B0203F4E063227902F0070230
S1130AD013432549C1F8043663781B0203F4E06329
S1130AE0A278120402F4F8121343C1F808362378EA
S1130AF0012B16D04BB1022B1FD04FF47A74FFF7A1
S1130B0091FF48BB34B3013CF9E7E379002B14BFF0
S1130B104FF40003002343F00103134AC2F80036E4
S1130B20EBE7E379002B14BF4FF40003002343F0F9
S1130B3001130D4AC2F80036DFE7E379002B14BF36
S1130B404FF403034FF4403343F00103064AC2F861
S1130B500036D2E7032005E0002C14BF0020032058
S1130B6000E0022004B010BD004006402DE9F04131
S1130B7080460D468C7801344E7806FB04460F7887
S1130B8007FB0447CB78013B052B1CD8DFE803F0B7
S1130B900312151B1B18FFF7BFFD0009B8F1020F64
S1130BA04AD0B8F1030F7CD0B8F1010F0DD000206A
S1130BB0BDE8F081FFF754FEEFE7FFF7C9FEECE76D
S1130BC0FFF730FFE9E70020E7E7EA7802EB4201AC
S1130BD05D4B53F821301B0904FB03F4A04200F2DF
S1130BE098800B46584901EB83035B681B0906FB9D
S1130BF003F6B04200F2908002EB420301EB830360
S1130C009B681B0907FB03F7B84200F28880AB78A6
S1130C101B0403F47023120602F0706213432A7853
S1130C2002F00F0213436A781201D2B21343474A07
S1130C3053610020BDE8F081EA7802EB4201424BA7
S1130C4003EB81035B6D1B0904FB03F4A04269D829
S1130C500B463D4901EB83039B6D1B0906FB03F621
S1130C60B04262D802EB420301EB8303DB6D1B0944
S1130C7007FB03F7B8425BD8AB781B0403F470237B
S1130C80120602F0706213432A7802F00F02134333
S1130C906A781201D2B213432C4A93610020BDE852
S1130CA0F081EB7803EB4301274A02EB8102D2F88F
S1130CB0A820120904FB02F4A0423CD80A462249A7
S1130CC001EB8202D2F8AC20120906FB02F6B04214
S1130CD034D803EB430201EB8202D2F8B0201209AC
S1130CE007FB02F7B8422CD8AA78120402F4702247
S1130CF01B0603F0706313432A7802F00F021343B8
S1130D006A781201D2B21343104AD3610020BDE8BD
S1130D10F0810120BDE8F0810120BDE8F0810120CF
S1130D20BDE8F0810120BDE8F0810120BDE8F0813B
S1130D300120BDE8F0810120BDE8F0810120BDE87B
S1130D40F0810120BDE8F0811474000000400640E9
S1130D5038B50546FFF7CEFC2946FFF707FF0446E2
S1130D6058B9E8780A220849013A0B69C3F30363C6
S1130D70984204D0002AF7D10324204638BD002A23
S1130D8008BF0324F9E700BF0040064010B504463D
S1130D901B4B1B69C3F30363013B052B1DD8DFE821
S1130DA003F00313161C1C19FFF7B6FC144B1B6944
S1130DB0C3F303430133B0FBF3F0012C0FD0ECB1C8
S1130DC0022C14D0002010BDFFF74AFDEEE7FFF718
S1130DD0BFFDEBE7FFF726FEE8E70020E6E7084B58
S1130DE01B69C3F303130133B0FBF3F010BD044BD1
S1130DF01B6903F00F030133B0FBF3F010BD00BF18
S1130E000040064008B50F4B1B6AC3F30363062B6F
S1130E1015D8DFE803F004080B0E141411000220A7
S1130E20FFF7B4FF08BDFFF777FC08BDFFF718FD17
S1130E3008BDFFF78DFD08BDFFF7F4FD08BD0020D8
S1130E4008BD00BF0040064008B541B1012931D0BA
S1130E500020024610B1431E22FA03F008BD0438F4
S1130E60032852D8DFE800F00B02141DFFF770FDD1
S1130E700246294BD3F8040300F00700EAE7FFF722
S1130E80EFFC0246244BD3F8040200F00700E1E72C
S1130E90FFF742FC0246204BD3F8040100F00700A0
S1130EA0D8E7FFF7BFFD02461B4BD3F8040600F05A
S1130EB00700CFE7043803282AD8DFE800F00B0244
S1130EC0141DFFF745FD0246134BD3F80403C0F38A
S1130ED00220BFE7FFF7C4FC02460F4BD3F804021D
S1130EE0C0F30220B6E7FFF717FC02460A4BD3F81B
S1130EF00401C0F30220ADE7FFF794FD0246064B60
S1130F00D3F80406C0F30220A4E700200246A1E7B8
S1130F10002002469EE700BF0040064008B5114B82
S1130F201B69C3F30113032B19D8DFE803F002078D
S1130F30101300210620FFF787FF08BD094B18692D
S1130F4000F00200002818BF4FF4FA4008BD064B19
S1130F50186808BD00210520FFF776FF08BD0020B2
S1130F6008BD00BF00800440E0000020114B1B6955
S1130F70C3F38103022B07D0032B0ED0002B0CBF2D
S1130F804FF4FA30002070470A4B186900F0020051
S1130F90002818BF4FF4FA407047064B186910F048
S1130FA0020006D0186900F00100002818BF4FF4B1
S1130FB07A7070470080044008B5244B5B6813F4D2
S1130FC0006F40D0214B5B68C3F303130E2B09D889
S1130FD0DFE803F00A080D081208171C20252F0863
S1130FE029082C00002026E0FFF70CFF23E0012154
S1130FF00620FFF729FF1EE001210420FFF724FF4C
S113100019E001210520FFF71FFF14E00020FFF77E
S1131010BDFE10E001210720FFF716FF0BE00120C1
S1131020FFF7B4FE07E0FFF7A1FF04E0FFF776FF48
S113103001E04FF4FA30054B5B68C3F3022301333C
S1131040B0FBF3F008BD002008BD00BF00800440E1
S113105010B50C4615380E2800F2A380DFE800F026
S113106008131E29333D414B5D6A737E87909900B6
S1131070584BDB68C3F30163022B00F29D80564A90
S113108052F8233022E0534BDB68C3F38163022B15
S113109000F29480504A52F8233017E04D4BDB683D
S11310A0C3F30173022B00F28B804B4A52F82330B6
S11310B00CE0484BDB689B0F022B00F28380464A0E
S11310C052F8233002E0FFF777FF03460020002B9D
S11310D06AD0002C7CD0236010BDFFF71FFF0346AD
S11310E0F4E73E4B9B78DB0901D00023EEE7FFF7E2
S11310F03DFF0346EAE7394B9B78DB0964D1354B66
S11311001B6913F00203E1D0324B1B6903F00103A6
S1131110002B18BF4FF47A73D8E7304B9B78DB0968
S113112054D12C4B1B6903F00203002B18BF4FF45E
S1131130FA43CBE7294B9B78DB09002B14BF002330
S11311404FF4FA33C2E7234B1B6CC3F3001383B38E
S11311500120FFF71BFE03460020B8E71D4B1B6C64
S1131160C3F3C003002BF3D14FF48070B1E7194BE4
S11311701B6CC3F38003002BEAD14FF48070A8E703
S1131180144B1B6CC3F34003002BE1D14FF480706C
S11311909FE7104B1B6C13F00103D9D14FF48070FF
S11311A097E70420002392E7042818BF4FF48070C7
S11311B08FE74FF480708CE7002387E7002385E7EF
S11311C0002383E7002381E700237FE700237DE7F3
S11311D010BD00BF00800440E400002000D00740A0
S11311E030B583B0002301932F4B03EB4003B3F8D6
S11311F0FC309B0003F1804303F5CA231D68C5F34B
S1131200C0051C6804F00704AC4219D31A6812F034
S1131210804F15D01B68C3F30263013B052B21D813
S1131220DFE803F003111620201B0620FFF70CFE55
S113123001900134019BB3FBF4F405FB04440194D5
S1131240019803B030BD0420FFF7FEFD0190F0E7E4
S11312500520FFF7F9FD0190EBE70720FFF7F4FD08
S11312600190E6E73C3803281BD8DFE800F00208C9
S11312700E1401A91520FFF7EBFE0024D9E701A9FC
S11312801620FFF7E5FE0024D3E701A91720FFF796
S1131290DFFE0024CDE701A91820FFF7D9FE0024C2
S11312A0C7E70024C5E700BF1474000030B583B05D
S11312B00546FFF7B7FB88B1062D56D006238DF8F7
S11312C0073002238DF8063001238DF8053002A87B
S11312D000F8043DFFF73CFD044600E00124FFF75D
S11312E037FB10B1032D4AD074B9FFF715FA10B1CA
S11312F0012D4DD0D4B9FFF7B3FA10B1022D00D0AF
S11313001CBB204603B030BD03238DF807300022F8
S11313108DF8062001228DF8052002A800F8043D6E
S1131320FFF716FD0446E0E70124E3E701238DF807
S1131330073000228DF806208DF8053002A800F849
S1131340043DFFF705FD0446D5E702238DF8073079
S113135000238DF806308DF8053002A8012300F82B
S1131360043DFFF7F5FC0446CBE7FFF7F1FA00284C
S1131370CAD1FFF7D1F90028D6D10124BBE7FFF782
S1131380CBF90028B6D1FFF76BFA0028B8D1B8E73B
S1131390FFF766FA0028B3D1B3E7174B1B69C3F311
S11313A00363013B052B06D8DFE803F0031D20058A
S11313B005230123C37010490A69104BC2F30312B9
S11313C01A4492F89C2142700A69C2F303421A44F7
S11313D092F89C2182700A6902F00F02134493F878
S11313E09C31037070470223C370E4E70323C37086
S11313F0E1E70623C370DEE70040064014740000F2
S113140001383F282DD8DFE800F02A282C262C2C80
S11314102C242C2C2C2C2C2C2C222C2C2C2C2C2C1A
S11314202C2C2C2C2C2C2C2C2C202C2C2C2C2C2C04
S11314302C2C2C2C2C2C2C2C2C2C2C2C2C2C2C2CE8
S11314402C2C2C2C2C2C2C2C2C2E062070470520DC
S11314507047042070470320704702207047012022
S113146070470020704707207047F0B5A5B028B337
S113147004460646002800F0FF80C54B1B69C3F3F1
S11314800363032B00F0C680FFF762FA002800F024
S1131490B88003238DF8073000228DF8062001223E
S11314A08DF8052024A800F88C3DFFF751FC054673
S11314B0002800F0AF80284625B0F0BD01238DF848
S11314C00B3000228DF80C208DF80D308DF80E2095
S11314D08DF808308DF809308DF80A308DF8163003
S11314E08DF814308DF815208DF80F208DF81030FC
S11314F08DF811308DF838300D928DF82530A549CE
S113150006918DF81C208DF824208DF81D308DF85F
S11315101E2002208DF81F008DF820308DF8213018
S11315208DF830308DF828208DF82F208DF8292063
S11315300C218DF82A108DF82B208DF82C308DF885
S11315402D308DF83D3003218DF83C108DF84B3053
S11315508DF841108DF840208DF83F308DF83E30E5
S11315608DF845008DF844308DF843208DF84210F5
S113157006208DF849008DF848208DF847308DF805
S1131580461085492291202121918DF84C308DF807
S11315904D208DF84E208DF84F208DF850308DF869
S11315A054308DF853308DF852208DF851208DF839
S11315B078308DF879308DF87A308DF87B308DF86D
S11315C07C308DF87D308DF883308DF8583017924B
S11315D0189219921A921B921C921D928DF87E30C9
S11315E08DF87F308DF880208DF881208DF8822051
S11315F08DF88C308DF88D308DF88E2002AE344607
S11316003BE700210120FFF7B3F9054600287FF4EA
S113161052AF3EE73146E078FFF738F90546002837
S113162000F0C280FFF766F8022800F0F780032874
S113163000F0F780012800F0D180002D7FF43BAF4B
S11316400022564B1A6094F8303013B1E26A534BBF
S11316501A6094F8353053B14D490A6A22F0706229
S113166094F834301B0603F0706313430B6294F850
S11316704330002B40F0338194F84430E3B194F8C4
S1131680455094F8463094F847204549486820F47A
S113169000604860496821F47F61002D14BF4FF455
S11316A0006000201B01DBB2120202F4E06213436B
S11316B00B4303433A4A536094F84830DBB194F83F
S11316C04A3094F849203649096921F03F0194F8D9
S11316D04C00014394F84B00002814BF0220002062
S11316E09B0003F00C030B43120102F0300213437E
S11316F003432B4A136194F87030002B37D0284BE6
S1131700196C21F0010194F871200A431A641B6CCE
S113171023F0020394F87220002A14BF022200224C
S113172013431F4A1364136C23F0040394F87320C7
S1131730002A14BF042200221343194A1364136CB1
S113174023F0080394F87420002A14BF082200220E
S11317501343134A1364136C23F0100394F8752095
S1131760002A14BF1022002213430D4A136494F874
S11317705030002B00F000810A4B626D1A60A26D9C
S11317805A60E26D9A6004F160000121044DCBE0DF
S11317900040064000127A001494FF1FE00000206D
S11317A000800440E400002004F11001607FFEF793
S11317B0C1FF054600287FF435AF04F1200194F8F9
S11317C02800FFF751F90546FEF794FF022825D0BB
S11317D0032826D0012801D0002601E004F13606B2
S11317E0002D7FF42AAFF378032B1DD08DF807303A
S11317F0B3788DF8063073788DF80530337824A8E3
S113180000F88C3DFFF7A4FA054600287FF415AFD5
S1131810E11DA07BFFF7ACF805460EE704F13A069C
S1131820DEE704F13E06DBE794F828300BBB637F68
S113183093BBE378002B42D10125002D7FF4FDAE4C
S1131840E11DA07BFFF794F8054600287FF4F5AE70
S1131850F3788DF80730B3788DF8063073788DF807
S11318600530337824A800F88C3DFFF771FA05465B
S1131870E3E606238DF8073002238DF806300123B2
S11318808DF8053024A800F88C3DFFF761FA054671
S1131890637F7BB10128D0D101238DF8073000226A
S11318A08DF806208DF8053024A800F88C3DFFF74C
S11318B04FFA0546E378002BBFD0012DBDD102239A
S11318C08DF8073000238DF806308DF8053024A8F4
S11318D0012300F88C3DFFF73BFA0546ADE704F120
S11318E036010120FFF742F9054600287FF4E3ADF5
S11318F004F13A010220FFF739F9054600287FF484
S1131900DAAD04F13E010320FFF730F90546002863
S11319107FF4D1ADB0E626F040761B0603F04073A9
S11319203343EB600131C9B250F8043BEE684A1E00
S1131930D2B2032A00F2A18001A757F822F000BF17
S113194017190000511900005F1900006D190000FB
S113195026F040669B0603F040633343E1E726F03C
S113196040561B0703F040533343DAE726F0404662
S113197046EA8373444AD36094F87630EBB1424A22
S1131980936E00209066516821F4805194F8783069
S11319901B0303F480530B435360906694F8773031
S11319A05BB194F879305B0003F00E0394F87A206D
S11319B042F080521343344A936614F17C0F3DD0B5
S11319C0D4F88030002B39D0E36F002B36D00021BF
S11319D02E482F4D01EB8102D4F880309B5C00EB44
S11319E04303B3F8FC309B0003F1804303F5CA239F
S11319F01E6826F080461E60D4F880309F189E5CD6
S1131A00BB781B0603F0E063FA78D20002F0080208
S1131A1013433A7902F0070213437A78002A14BF79
S1131A204FF080420022134300EB4606B6F8FC2038
S1131A3045F822300131E36F9942CBD394F88430D6
S1131A4003B314498B7803F07F0394F8852082F064
S1131A50010243EAC213DBB28B7094F98630002B87
S1131A60BCBF20335BB20B490A7903F01F0302F0B9
S1131A70E00213430B7100251DE5EE6003297FF698
S1131A8051AF79E7002516E5008004401474000086
S1131A900050064000D0074070B504460D4611289A
S1131AA007D9232840F285804D2840F28580042000
S1131AB070BD11287AD8DFE800F00913191F242912
S1131AC02E33383C41484F565D646B720020FFF75B
S1131AD05DF903460020002D00F0D9802B6070BD15
S1131AE00120FFF753F903460020F4E70220FFF733
S1131AF04DF903460020EEE7FFF75EFA03460020A7
S1131B00E9E7FEF7ADFE03460020E4E7FEF720FF19
S1131B1003460020DFE7FEF7FFFD03460020DAE777
S1131B20FEF780FF03460020D5E7594B1B680020D1
S1131B30D1E7FFF767F903460020CCE70021042032
S1131B40FFF782F903460020C5E701210420FFF7CF
S1131B507BF903460020BEE700210520FFF774F956
S1131B6003460020B7E701210520FFF76DF903467E
S1131B700020B0E700210620FFF766F903460020A5
S1131B80A9E701210620FFF75FF903460020A2E739
S1131B9000210720FFF758F9034600209BE70121A5
S1131BA00720FFF751F90346002094E7002304209F
S1131BB091E7FFF74DFA70BD242805D804200023CF
S1131BC0002D64D02B6070BDA0F13303DBB21A2B5F
S1131BD007D8304A22FA03F313F0010F18BF042088
S1131BE0EDD12D4B03EB4403B3F8FC202B4B53F8FE
S1131BF0223013F0804F37D14FF48070DFE701209B
S1131C00FFF7C4F8034600283CD100234FF480704A
S1131C10D6E70020FFF7BAF803460028F5D031E0F4
S1131C200220FFF7B3F803460028EED02AE016F0AE
S1131C30080F06D116F0100F0BD100234FF480705B
S1131C40BEE700212046FFF7CBFA034616F0100F3B
S1131C5004D001212046FFF7C3FA0346002B14BF2A
S1131C6000204FF48070ABE70B4B234493F8AC6136
S1131C7016F0200FC3D116F0400FCAD116F0800F12
S1131C80CED1002316F0180FD1D1002098E770BDF3
S1131C90E0000020412100041474000000500640BC
S1131CA070B582B004460D4689B1554B234493F870
S1131CB0AC3113F0010F63D113F0180F30D06A78F0
S1131CC0043A032A5AD8DFE802F0232527290123FE
S1131CD08DF80030FEF7C4FD48B104238DF80130BF
S1131CE00123ADF80230ADF804306D46DDE7FEF7B0
S1131CF02FFE08B10523F1E7FEF794FE08B1072390
S1131D00ECE7FEF709FD002814BF06234F23E5E79F
S1131D10022206E0032204E0012202E0062200E09F
S1131D20002213F0040F1ABFAE8806F1FF36002616
S1131D3013F0020F1ABF698801F1FF310021304B03
S1131D4003EB4404B4F8FC40A30003F1804303F51F
S1131D50CA23186820F0804018602B7863B11206FB
S1131D6042F0804206F007063243C90001F0080140
S1131D700A43244B43F8242002B070BD0022D0E76C
S1131D802B781F3C042CF7D8DFE804F02E22160A27
S1131D9003001D490A6C22F0010213430B64EBE7B4
S1131DA0194A126C22F00202002B14BF02230023F2
S1131DB01343154A1364DFE7134A126C22F004023A
S1131DC0002B14BF0423002313430F4A1364D3E7E7
S1131DD00D4A126C22F00802002B14BF08230023C2
S1131DE01343094A1364C7E7074A126C22F010022E
S1131DF0002B14BF102300231343034A1364BBE7CF
S1131E0014740000005006400080044070B582B095
S1131E1005460C46FEF76EFC06469DB12B68022B68
S1131E200ED0042B10D0012B0CBF012504256CB15E
S1131E302378043B032B56D8DFE803F0574F515364
S1131E400225F4E70546F2E70325F0E7FEF780FDF7
S1131E5058B103238DF8073000228DF806200122A3
S1131E608DF805208DF8043055E0FEF7DBFD58B100
S1131E7006238DF8073002238DF8063001238DF8F0
S1131E8005308DF8043046E0FEF746FC50B10123DE
S1131E908DF8073000228DF806208DF805308DF876
S1131EA0043038E0FEF7DCFCA8B302238DF80730D9
S1131EB09D4208D000238DF806308DF805300123AB
S1131EC08DF8043027E001238DF8063000238DF8C7
S1131ED0053003238DF804301DE0032306E00123BD
S1131EE004E0062302E0FF2300E002238DF807301C
S1131EF00F4B62881A4492F8FC218DF80620A288C0
S1131F001A4492F8FC218DF80520E288134493F8D2
S1131F10FC318DF80430B54205D001A92846FEF7FE
S1131F2025FE02B070BD01A8FEF712FFF9E700BF5D
S1131F3014740000154B1B69C3F30363013B052BA9
S1131F4020D8DFE803F00316191F1F1C06230370B3
S1131F500E4A1369C3F30343013343801369C3F384
S1131F60031301338380136903F00F030133C38028
S1131F70704704230370EBE705230370E8E70723A6
S1131F800370E5E704230370E2E700BF0040064066
S1131F902DE9F04186B004460D4631B38889FFF738
S1131FA02FFA8046E889FFF72BFA07462E78201F80
S1131FB0172800F23881DFE810F01C0057008F006A
S1131FC0E4003601360136013601360136013601A8
S1131FD03601360136013601360136013601360145
S1131FE036013601360136011C010127B8463E464A
S1131FF0DDE78E4B1B69C3F30363022B1FD0002460
S113200065B301238DF80D308DF80C3000228DF866
S11320100E208DF809808DF80A7006A901F8103D8C
S11320203046FEF733FC0346002B40F0E980002CD9
S113203000F0E68001A8FEF78BFE0346E0E00EB94F
S11320400123DDE001A8FFF7A8F90220FFF72EF92C
S11320500346002840F0D4803446D1E70021012013
S1132060FEF714FC0346DFE7704B1B69C3F30363FD
S1132070032B1CD000244DB300238DF80E308DF8B3
S113208009808DF80A708DF808308DF80D3002A99A
S11320903046FEF76DFC0346002B40F0B180002C67
S11320A000F0AE8001A8FEF753FE0346A8E00EB987
S11320B00123A5E001A8FFF770F90320FFF7F6F864
S11320C00346002840F09C803446D4E70021304683
S11320D0FEF74EFC0346DFE7544B1B69C3F303636F
S11320E0012B2FD00024002D3AD06B6802930022DC
S11320F08DF80C208DF814208DF810808DF8117057
S11321006A78012A14BF002201228DF80D200022D2
S11321108DF80E20A3F57412A2F5106244498A4288
S113212024D802238DF80F3002A93046FEF702FBB3
S11321300346002B64D1002C62D001A8FEF708FEF0
S113214003465DE00EB901235AE001A8FFF725F923
S11321500120FFF7ABF80346002851D13446C2E70B
S113216000213046FEF7E6FA0346E2E7A3F5F4035E
S1132170A3F590532F4A93429CBF03238DF80F304D
S1132180D2E72A4B1B69C3F30363062B1ED000243A
S11321904DB300238DF808308DF80F308DF80C8086
S11321A08DF80D70AB7A013B8DF809302B7A103B1A
S11321B08DF80A3002A93046FEF756FC0346FBB9F7
S11321C0F4B101A8FEF7C4FD034619E00EB90123DA
S11321D016E001A8FFF7E1F80620FFF767F80346C9
S11321E070B93446D4E700213046FEF73DFC03467F
S11321F0E5E74EB9104A937843F0800393700023C7
S1132200184606B0BDE8F0810C4A136923F03F0379
S113221043F00303136102F55432937803F07F0310
S113222093700023ECE70023EAE700BF0040064078
S113223000093D000048E80100D007400080044048
S113224010B4054C20602171A260237363730020D5
S11322505DF8044B704700BF54000020F0B583B014
S113226007460E468DF804008DF8051000F0E6FFD1
S1132270334B1C7B5C7301238DF80630002C4AD051
S113228000242F4D04E00134E4B22B7BA34242D955
S1132290AB6853F82430002BF5D01A79022AF2D017
S11322A01A68996801A890470028ECD06C73002E36
S11322B0E9D140F2031500238DF80630A400204E26
S11322C020E00134E4B23B7BA34212D9BB6853F84B
S11322D02430002BF5D01A79012AF2D01A689968B3
S11322E001A890470028ECD07C73002EE9D14FF46C
S11322F0827500F095FF284603B0F0BD043C14F14C
S1132300040FF6D0B3681B59002BF7D01A689968EC
S113231001A89047F2E70A4D2B6853F82700FFF70E
S1132320A4F86F7105460028C5D102238DF8063044
S1132330034B1B7B002BDCD00024014FC6E700BFFE
S113234054000020014B5879704700BF540000200E
S1132350054B5A7B1B79934283BF034B9B6853F80D
S113236022000020704700BF5400002008B5FFF78A
S113237093FB08BD08B5FFF778F808BD29B14118EB
S1132380002300F8013B8142FBD1704710B4064B97
S11323901B6853F82040616053F820309A60002095
S11323A05DF8044B704700BF6400002070B504461C
S11323B0094D2B6853F82060002200F00F010748F4
S11323C000F065FD10213046FFF7D8FF2B68002090
S11323D043F8240070BD00BF64000020008000406A
S11323E038B5102000F00EFF0F4B1B68BBB1002462
S11323F00D4D02E00134102C08D02B6853F8243022
S1132400002BF7D01878FFF7D1FFF3E7074D6C1EC8
S11324100F3514F9010F00F0F5FEA542F9D10020A3
S1132420014B186038BD00BF640000202476000012
S113243008B5084B1B6853F8203000F00F00064A1B
S11324401077D07723B15A6812B1197B98689047F6
S113245008BD00BF640000200080004038B5054678
S113246000F00F0400222146094800F010FD094B3A
S11324701B6853F8253053B1054A1477D477947701
S113248001221A735A6812B1197B9868904738BDB3
S113249000800040640000202DE9F04F87B09DF8D3
S11324A04070119D0124BC405FFA84FCB5FBFCF62E
S11324B00CFB1656002E14BF4FF0010A4FF0000A11
S11324C003D0504607B0BDE8F08F05930492039102
S11324D0804600F00F06DFF800913146484600F0D0
S11324E0DBFCD9F8003043F08003C9F800307301F5
S11324F003F1804202F5004B02F51042049810608B
S11325004B4441F21002059898500197009700231C
S11325101A463146484600F0F5FC039B032B12D8BB
S1132520DFE803F0022D3D4C002241F204032BF8B6
S1132530032064B2A4B2730103F1804303F50043A2
S113254041F214029C52244C2A463146204600F0A3
S1132550F1FC01223146204600F077FD04EB4616DB
S113256041F21C02B35A1BB243F002039BB2B352B2
S11325701A4B1B6853F8283000221A73A1E764B27F
S1132580A4B241F204032BF80340730103F1804326
S113259003F50043002141F214029952D3E764B2D7
S11325A0A4B241F204032BF80340730103F1804306
S11325B003F5004341F214029C52C4E7002241F2A5
S11325C004032BF80320730103F1804303F5004354
S11325D041F214015A52B6E7008000406400002022
S11325E070B582B00446079D01959DF8185000957A
S11325F0FFF752FF054610B1284602B070BD04F043
S11326000F040F4E089A2146304600F01EFD06EBDB
S1132610441641F21C03F35A23F008031B041B0C59
S11326209DF82420002A14BF0822002213436401C9
S113263004F1804404F5004441F21C02A352DBE798
S11326400080004008B5012200F00F01024800F0AC
S11326501EFC002008BD00BF0080004008B5002219
S113266000F00F01024800F012FC002008BD00BF7A
S11326700080004010B40F4B1C5C04F07F041C5419
S11326801C5C01F03F0104F0C004214319541B5C9D
S113269003F0BF03002A14BF402200221A43054B53
S11326A01A541A5C42F080021A5400205DF8044B5C
S11326B0704700BF001002402DE9F04180460C46EF
S11326C04D7805F00F061021FFF758FE227BA17804
S11326D06078FFF7CFFF074631461D4800F0DCFB6A
S11326E017B13846BDE8F0811A4B1B6843F82580C2
S11326F053F82520157053F8253000221A73144D11
S113270001223146284600F0BDFB2B6813F0040F6C
S113271011D12378FF2B0ED086F0030606F18046F4
S113272006F5004696F8002103F00F0302F0F002CC
S1132730134386F800316568A1686278054B1B680D
S113274053F82200456053F822309960C9E700BF6E
S113275000800040640000202DE9F0420D4616463A
S11327609946069F244B18604021FFF707FE234C2F
S1132770204600F0B6FB226822F004022B789B006E
S113278003F0040313432360236823F010036A78DF
S1132790002A14BF1022002213432360102000F0EB
S11327A025FD174D6C1E0F3514F9010F00F01EFDA9
S11327B0AC42F9D1134800F08DFCDEB1B9F1000F41
S11327C014D0AFB1043EA9F1040900252C4659F8F0
S11327D0041F56F8040FFFF76FFF002818BF0546C3
S11327E00134A742F3D12846BDE8F0820025FAE778
S11327F00025F8E70025F6E764000020008000408B
S1132800247600000010024008B500F00F010248D1
S113281000F042FB08BD00BF0080004000F00F0044
S113282080304001014B1950704700BF00800040C8
S113283000F00F0089B2400100F1804000F5104023
S11328408180704700F00F00400100F1804000F5E6
S1132850004041F20602835A9BB2090201F4E0618E
S113286023F4E06319438152704700F00F004001E4
S113287000F1804000F5004041F20C03C150704764
S113288000F00F00400100F1804000F5004041F2EB
S11328901803C150704700F00F00400100F1804060
S11328A000F5004041F21003C150704700F00F00E2
S11328B089B2400100F1804000F5004041F2140368
S11328C0C152704700F00F00400100F1804000F554
S11328D0004041F20602835A9BB201F0070123F043
S11328E007030B438352704708B50A4600F00F01F3
S11328F0014800F01FFB08BD0080004008B50A46EF
S113290000F00F01014800F0A0FB08BD008000406A
S113291008B500F00F01024800F0C6FB08BD00BF77
S11329200080004008B50A4600F00F01014800F09D
S113293051FB08BD0080004000F00F00430103F18B
S1132940804303F5004341F21C029B5A23F0080321
S11329501B041B0C002914BF08220022134340014E
S113296000F1804000F5004041F21C0283527047A0
S113297008B500F00F00012908D011B102291DD0BB
S113298008BD0146194800F07DFA08BD430103F172
S1132990804303F5004341F21C015B5A23F0040316
S11329A01B041B0C002A14BF042200221343400101
S11329B000F1804000F50040435208BD430103F19B
S11329C0804303F5004341F21C015B5A23F00203E8
S11329D01B041B0C002A14BF0222002213434001D3
S11329E000F1804000F50040435208BD00800040E3
S11329F008B518B1034800F03CFA08BD014800F0DE
S1132A002FFA08BD0080004000F00F00014B5877FA
S1132A10704700BF00800040002843D038B504460A
S1132A2000293BD00D4620212846FFF7A7FC227E33
S1132A30637A03F0070343EAC223227A120202F400
S1132A40E0621343627ED200D2B21343EB80236868
S1132A502B60B4F90A30AB80E369AB602369EB60A7
S1132A6063682B61B4F90C30AB82E36A1B68EB82B8
S1132A7094F820309BB1636AAB6194F82830002B42
S1132A8014BF0223002394F82020002A14BF10222C
S1132A9000221343AB83E36A1B68EB8338BD63698D
S1132AA0AB61EAE770472DE9F04182B00C4600F0D3
S1132AB00F05724F2946384600F0EEF922686E0180
S1132AC006F1804303F5004803F510431A60626879
S1132AD03E4441F21003F250637E227E617A0191FA
S1132AE0217A00912946384600F00CFA628941F2B5
S1132AF0040328F80320A28941F21403F252226944
S1132B0041F20C03F25094F82030002B40F0A180E5
S1132B106B0103F1804303F5004341F21C015A5A4F
S1132B2022F010021204120C5A52616941F2180286
S1132B3099506B0103F1804303F5004341F21C02F9
S1132B409B5A23F002031B041B0C94F82820002A30
S1132B5014BF0222002213436A0102F1804202F5EB
S1132B60004241F21C015352E16A00297FD0434BD9
S1132B701B6813F0800F14D0134641F208029A58D0
S1132B8022F000420B79002B14BF4FF000430023C6
S1132B901A436B0103F1804303F5004341F208013A
S1132BA05A50364B1B6813F0800F19D06B0103F198
S1132BB0804303F5004341F208029A5822F0804210
S1132BC0E36A5B79002B14BF4FF0804300231A4360
S1132BD06B0103F1804303F5004341F208015A50AD
S1132BE0E36A264E9A682946304600F0D1F9E26934
S1132BF02946304600F09EF9E26A137B527B29464F
S1132C00304600F0EDF9E36A997B06EB451641F294
S1132C101C00325A92B2DB7B1B0203F4706322F471
S1132C20706213433352335A23F020031B041B0CEA
S1132C30002914BF202200221343104841F21C0231
S1132C40B352E36A1A68294600F0FFF902B0BDE8FE
S1132C50F081384641F21C02B35A1BB243F0100310
S1132C609BB2B352626A294600F0B4F961E7E269A3
S1132C702946024800F05EF9E8E700BF0080004002
S1132C8010B50446064A136843F080031360FFF747
S1132C900AFF044B1B6853F824300020187310BD3E
S1132CA000800040640000202DE9F04F95B00390AF
S1132CB093469946DDF878801F9D9DF880300093F7
S1132CC01F3121F01F0A5F4B1B6853F8203000248A
S1132CD01C73012707FA0BF20192BDF80430B9FB0B
S1132CE0F3F603FB1696311B18BF01210291302124
S1132CF004A8FFF743FB102110A8FFF73FFB08943B
S1132D0009948DF828408DF829408DF818B08DF875
S1132D1019B0CDF82C908DF838708DF8307010A95A
S1132D200F918DF844408DF845408DF84C408DF856
S1132D304E400098002874D0002E72D1D8F800308C
S1132D4004932B680593D8F804306A6893426CD1D5
S1132D5098F808102A7A91426AD14646AAF12007C7
S1132D60A346BDF90420029200F1FF3A5FFA8AFA01
S1132D702AE0ADF81AB0BDF80430ADF81C30A24515
S1132D800EBFCDF834B007F120030D93002C41D0D1
S1132D90394604A8FFF740FE0134E4B2009BA34285
S1132DA03DD0D8F80C3004932946EB680593D8F845
S1132DB010302A6993423ED10C360C35203798F8EE
S1132DC014000A7D904239D1B3FBF9F30F9A1360D2
S1132DD0B046337A032BD2D801A252F823F000BFB5
S1132DE0732D0000F12D0000FF2D00000B2E0000BC
S1132DF0BDF80430ADF81A30ADF81CB0BFE7029B43
S1132E00ADF81A30ADF81C30B9E7ADF81AB0ADF82A
S1132E101CB0B4E704A90398FFF745FEBCE7002300
S1132E200293029815B0BDE8F08F01230293F8E7EE
S1132E3001230293F5E701230293F2E701230293AE
S1132E40EFE700BF64000020024B1B6853F82030FA
S1132E50187B7047640000200048704700800040E1
S1132E60036843F400330360036813F4003FFBD1A9
S1132E707047036843F480330360036813F4803FAE
S1132E80FBD170470AB901767047417670470AB999
S1132E9081767047C176704700EB4111002341F2FF
S1132EA008028B5001F58052136041F204028B52E8
S1132EB041F206028B5241F20C028B5041F2100295
S1132EC08B5041F214028B5241F216028B5241F2A2
S1132ED018028B5041F21C028B5241F21E028B529B
S1132EE0704738B50546036823F4403323F0C6031E
S1132EF003600024E1B22846FFF7CEFF0134102C12
S1132F00F8D138BD10B4DB00DCB29DF8083003F012
S1132F100703234343EAC2239DF80420120202F468
S1132F20E06213439BB2803100EB4111CB805DF82A
S1132F30044B7047036813F0800F13D010B400EBF8
S1132F40411341F208041B59002B11DB00EB411320
S1132F501B5913F0804F0BD122F0404200EB41107B
S1132F60025112E000EB411041F20803C2507047D5
S1132F7000EB411041F20801435823F47F7323F01E
S1132F800303C2F309021A4342505DF8044B70472D
S1132F90036813F0800F18D030B400EB411341F2F2
S1132FA008041D591B5913F0804F01D1002D0BDA71
S1132FB000EB411041F20804035904491940044B41
S1132FC003EA82220A43025130BC7047FF0300C067
S1132FD000FCFF3F00EB411141F21803CA50704757
S1132FE030B400EB411541F21E042C5BC4F30E0413
S1132FF0FBB144F40044294641F21E054C5341F20E
S113300016000B5A6FEA43436FEA53439BB20B52C9
S11330104B5B9BB2520202F4F05223F4F05313437D
S11330204B530B5A9BB223F4F0531A430A5230BC4D
S1133030704700EB411141F21E03CC5241F21602DB
S11330408B5AC3F30E038B52F1E710B400EB411417
S113305041F21E03E35A13F4004F14D100EB411163
S113306041F21E000B5AC2F30E0203F40043134351
S11330700B5241F216000B5A03F400431A430A524E
S11330805DF8044B704741F21E00235AC2F3080254
S113309003F47E431343235241F21600235A03F4EC
S11330A07E431A432252EBE700EB411241F21E0326
S11330B0D35A13F4004F07D100EB411041F2160329
S11330C0C05AC0F30E00704741F21603D05AC0F341
S11330D00800704700231A46C2540133102BFBD159
S11330E0704700BF08B50020FFF7A2F908BD08B576
S11330F00120FFF79DF908BD08B50220FFF798F9F4
S113310008BD08B50320FFF793F908BD08B50420EE
S1133110FFF78EF908BD08B50520FFF789F908BD4A
S113312008B50620FFF784F908BD08B50720FFF7A6
S11331307FF908BD08B50820FFF77AF908BD08B57E
S11331400920FFF775F908BD08B50A20FFF770F9E3
S113315008BD08B50B20FFF76BF908BD08B50C20B6
S1133160FFF766F908BD08B50D20FFF761F908BD42
S113317008B50E20FFF75CF908BD08B50F20FFF76E
S113318057F908BD38B50020FFF766FEC56A00246C
S113319004E06D080134E4B2102C06D015F0010FE0
S11331A0F7D02046FFF75AF9F3E738BD10B40B4BBC
S11331B00B4C9C420DD02AB100F11003084C54F87A
S11331C0233013601030064B43F820105DF8044B95
S11331D07047044B044C9C42F8D1ECE7000000001B
S11331E00090FF1F7C7B000098760000420900F0ED
S11331F01F00012303FA00F0014B43F8220070473B
S113320000E100E0430900F01F00012202FA00F08F
S11332102033024A42F82300704700BF00E100E077
S1133220054B1B68002B04DD013B034A1360002B94
S113323000DD704762B6FCE76800002072B6024AFF
S1133240136801331360704768000020002808DB0E
S11332500901C9B200F1604000F5614080F8001333
S11332607047C0B2C0F38102012A0DD010B40A4CD9
S11332700A4B022A18BF234600F003000901C9B211
S113328019545DF8044B7047054B00F00300090125
S1133290C9B21954704700BF20ED00E01CED00E0F6
S11332A018ED00E0002807DB00F1604000F5614004
S11332B090F8000300097047C0B2C0F38102012AEC
S11332C009D00649064B022A18BF0B4600F003003A
S11332D0185C00097047034BF8E700BF20ED00E0DD
S11332E01CED00E018ED00E0430900F01F0001228E
S11332F002FA00F06033024A42F82300704700BF2C
S113330000E100E0430900F01F00012202FA00F08E
S11333104033024A42F82300704700BF00E100E056
S113332043094033044A52F8233000F01F0023FAC3
S113333000F000F00100704700E100E04309803331
S1133340044A52F8233000F01F0023FA00F000F082
S11333500100704700E100E070B491F82430002BC4
S113336050D00B8CDB0903F00603103BDBB2C56DB8
S1133370466806F00F060124B44005F00705A4B220
S1133380A54227D203F58063036691F82060C46DDB
S1133390456805F00F050123AB4004F007049BB218
S11333A09C421FD20666002A43D00B8CDB0903F033
S11333B006030F3BDBB2C46D456805F00F0501221F
S11333C0AA4004F0070492B2944213D203F5806336
S11333D003662EE08C7A04250D550D196B710134AA
S11333E08C72D2E78B7A0024CC54CC1866710133EA
S11333F08B72D8E78A7A0420885488184371013282
S11334008A7216E091F8203002EB4302D2B2C46D06
S1133410456805F00F050123AB4004F007049BB297
S11334209C4208D38B7A0420C854C81842710133D3
S11334308B7270BC704702F580620266F9E730B4A3
S1133440C36D44688D7ACA7A954201D030BC704706
S11334508A69002AFAD004F00F0201249440A4B22D
S113346003F007039C42F1D94B691B7803664B694F
S113347001334B618B69013B8B61C26D02F0070222
S1133480002BE3D09442EFD8E0E7D0F8183123F4CE
S1133490706323F00703C0F81831CB7E3BB98B6807
S11334A09BB9D0F81C3123F00103C0F81C31D0F8CB
S11334B0103123F00103C0F8103100238B700B612D
S11334C08B60CB604B60CB757047D0F81C3123F018
S11334D00203C0F81C31EAE7F8B505460C46164667
S11334E01F46836923F4E05323F00303836191F8B7
S11334F02730ABB13FB12B6943F480732B612B6947
S113350043F400732B6116B14FF400732B66002350
S11335106361A361E3602361012384F82230F8BD71
S113352091F82800FFF79AF8236923B1EB6923F097
S11335300203EB61DEE7EB6923F00103EB61D9E7FA
S113354038B50D461F4B53F82040A3698BB10129B0
S113355028D00023A3611C4B9A6D22F003029A65C4
S1133560DA6922F00102DA619A6942F001029A6191
S113357038BD002394F8232021461348FFF7ACFFFD
S113358094F826304BB9012D17D00023A383E36AA6
S1133590B3B1216B0420984738BD04F1250002F033
S11335A0ABFDF0E7002394F8232021460648FFF7FB
S11335B093FF94F82630002BEFD10123A383E6E791
S11335C038BD00BF6C0000200060064038B50446DA
S11335D00D46C37E3BB1637D4BB1236A13B1616A6F
S11335E00420984738BD007FFFF738F8F3E72146F9
S11335F02846FFF74AFFA37E002BEED004F1190002
S113360002F07AFDE9E730B585B00C460B7C9BB13E
S113361000222C212078FFF72DF8A36862686178D6
S1133620207800250395E468029401240194009510
S1133630FEF7D6FF05B030BD00220A4B13F8101078
S11336402078FFF717F86368A2686178207800256E
S11336500395E4680294012401940095FEF7C0FFE9
S1133660E8E700BF34760000F0B587B005463E4B6E
S113367053F8204094F828308DF80430A1690029CB
S113368052D03A48426802F00F02866D26F00306D3
S1133690012707FA02F293B28B4228BF0B46013B83
S11336A003F00303334383658DF80570304B0293B5
S11336B06369039300268DF81460A369049301A938
S11336C02846FFF7A0FF01219DF80400FFF734F915
S11336D02A4628499DF80400FEF758FE9DF8040088
S11336E0FEF7B0FF324621462048FFF735FEA369B6
S11336F0002B2BD12369013BDBB21C4AD16D5068EE
S113370000F00F000122824001F0070192B29142C1
S113371022D203F58073154A1366144AD36943F021
S11337200203D36107B0F0BD104A936D23F4403314
S1133730936500238DF805300F4B0293E3680393E0
S113374001268DF8146023690493B8E7074AD36906
S113375043F00103D361E5E7A27A0121A154A11842
S11337604B710132A272D8E76C0000200060064061
S113377060600640413500007060064010B50A4B99
S113378003EB8000446804F1190002F073FC032881
S113379003D00023A376208810BD21460348FFF7F9
S11337A074FE03232380F4E76C00002000600640CD
S11337B010B586B0224B03EB80035C68636833B3B7
S11337C0237F8DF8043001238DF805301D4B0293BF
S11337D0E368039300238DF814306368049301A90C
S11337E0FFF711FF616849429DF80400FFF73DF8B7
S11337F09DF80400FEF726FF6368C3B9124AD2F8A5
S11338001C3143F00203C2F81C3106B010BD237F03
S11338108DF8043000238DF805300C4B0293236996
S1133820039301238DF81430A3680493D7E7064A61
S1133830D2F81C3143F00103C2F81C31E5E700BFA4
S11338406C00002060610640006006407061064024
S113385070B50646094D55F82000253002F069FC84
S1133860002445F82640064A136923F00103136136
S11338701820FFF7C7FC204670BD00BF6C00002075
S11338800060064010B582B00C4601A94420FEF742
S11338906DFD094B5A6A996C9B6C03F03F0302332C
S11338A0C1F305210B4402F007029340019AB2FBD5
S11338B0F3F3236002B010BD00600640474B53F899
S11338C0203093F822300BB902207047F0B583B052
S11338D017460E46054601A94420FEF747FD404A17
S11338E0136923F0010313616FB3019B5A1EF9019D
S11338F0B2FBF1F20132012A18D90124204600FA60
S113390004F18A4202D90134072CF8D107FA04F2EF
S113391003EB5203B3FBF2F3802B28BF8023012B6C
S113392006D803220227012108461AE00024EDE705
S11339309A1E5108521A49B9032A38BF0322022792
S1133940012108460DE03F2207241146032A38BF0F
S1133950032248080F46022938BF0227002808BF5F
S113396001201F4BD3F824C02CF0070C04F00704EB
S113397044EA0C045C629C6C24F07C54000600F065
S11339807C50204398649C6C24F47C14380400F428
S11339907C1020439864986C20F47C50090201F454
S11339A07C5101439964996C21F03F0102F03F027C
S11339B00A439A64094A52F825105A6A22F0E062CE
S11339C05A625A6A22F400725A628E771A6942F075
S11339D001021A61002003B0F0BD00BF6C0000209A
S11339E0006006402DE9F04182B007460E461446B9
S11339F001A94420FEF7BAFCDFF8888048F8274084
S1133A000025E56025616561A561A583012384F82E
S1133A10223033882384B37884F82430337A84F8CA
S1133A202730737A84F82830F368E36233692363B8
S1133A3084F826507368A36384F83450294604F14B
S1133A40250002F06CFBE572A5721820FFF7CEFB8F
S1133A500B4C204600F0E6FD7268F1783846FFF71B
S1133A602DFF3188B27858F82730198483F8242040
S1133A70236943F001032361284602B0BDE8F081C5
S1133A80006006406C0000202DE9F04107460C461A
S1133A90DFF84C8048F8271000254D618D61CD601A
S1133AA00D61012381F82230CD728D720B4E3046A8
S1133AB000F0B8FDA26BA17F3846FFF7FFFE218C12
S1133AC094F8242058F82730198483F82420336983
S1133AD043F0010333612846BDE8F08100600640ED
S1133AE06C000020F8B506460F462E4B53F82040D4
S1133AF004F12505284602F0BDFA032805D0002369
S1133B0084F82630A08B80B2F8BDA3695BBB94F81F
S1133B1027308BB3244B9A6922F002029A61DB6D41
S1133B20C3F3024122698A422BD08A420CD9012272
S1133B3084F834201C498A6D22F4403203F4403363
S1133B4013438B650323A383174A936943F002034A
S1133B5093613946284602F08DFA03281AD00023CF
S1133B6084F83430CBE70123002221460E48FFF7C6
S1133B70B3FC0323A383C2E794F82800FEF76EFD89
S1133B80C8E7002AD1D10023A38384F82630A08B70
S1133B9080B2F8BD21463046FFF776FF0323A383A6
S1133BA0DDE700BF6C00002000600640034B53F8C3
S1133BB02030198483F82420704700BF6C00002053
S1133BC038B5194C54F8204094F822500DB902200D
S1133BD038BD6161A26184F82330002384F8223067
S1133BE00223A38394F82730ABB1104D0022214661
S1133BF02846FFF7B1FB21462846FFF720FCAB6DB2
S1133C0023F00303AB65AB6943F4E05343F00103D2
S1133C10AB61002038BD054A936943F4E0539361D6
S1133C20FFF722FD002038BD6C0000200060064034
S1133C302DE9F041104C54F8205095F8224014B965
S1133C400220BDE8F081984617460E46044601233B
S1133C5085F82630002105F1250002F00BFA4346D1
S1133C603A4631462046FFF7ABFF06992046FFF758
S1133C7039FFBDE8F08100BF6C00002008B5084B97
S1133C8053F82010CB680BB1042008BD4FF4017326
S1133C908B8301231A460348FFF71EFC002008BD4E
S1133CA06C00002000600640F8B5344C54F8204005
S1133CB094F822500DB90220F8BD15462261002265
S1133CC084F8222084F82330E1600223A38394F84B
S1133CD02730002B37D02A4E012221463046FFF7E9
S1133CE03BFBEBB25A1ED7B2F16D706800F00F00C7
S1133CF00122824001F0070192B291422CD207F5D1
S1133D00807737661E4A5168C1F3032101228A4035
S1133D1091B2A94294BF0B469BB219498A6D22F411
S1133D204032013B1B0403F4403313438B65A27AF6
S1133D30E37A9A4218D08B6943F4E05343F00303C7
S1133D408B610020F8BD0E4A936943F4E0539361FC
S1133D50FFF78AFC0020F8BDA27A0121A154A11822
S1133D604F710132A272CDE7054A936943F4E053DF
S1133D7043F0020393610020F8BD00BF6C000020F3
S1133D80006006402DE9F041104C54F8205095F89D
S1133D90224014B90220BDE8F081984617460E4629
S1133DA00446012385F82630002105F1250002F0A0
S1133DB061F943463A4631462046FFF775FF0699B6
S1133DC02046FFF78FFEBDE8F08100BF6C000020A5
S1133DD0104B53F82030084619B193F82720012AD4
S1133DE002D0988B80B270479A6922B91A694AB98D
S1133DF000220A60F5E70849C96D01F007010A4489
S1133E000260EEE70449C96DC1F30241521A02602F
S1133E10E7E700BF6C000020006006402023038019
S1133E2000238370C370044A426001220272437209
S1133E30C3600361704700BFA086010070B50546EA
S1133E408E4B53F820408E4B5B6913F0010F3ED12B
S1133E508B4B5B6913F0020F0FD094F83430002BB6
S1133E6000F0828094F82630002B40F0A8800323D1
S1133E70A38321462846FFF707FE814B5B6913F4B1
S1133E80805F40F0BB807E4B5B6913F4006F40F0B1
S1133E90CF807B4B5B6913F4806F00F0EE8094F865
S1133EA02630002B40F0E0804FF40073A3830123FD
S1133EB0002221467248FFF70FFBE36A13B1216B1E
S1133EC0042098474FF480626D4B5A6170BDE37AC9
S1133ED0A27A9A4217D16369002B3FD0A369002BC1
S1133EE037D194F8232021466548FFF7F5FA94F872
S1133EF026304BBB0023A383E36A002BA8D0216B9D
S1133F0004209847A4E75E49CA6D496801F00F018F
S1133F1001268E40B6B202F00702B24298D2584946
S1133F20E25C23445B7903EB02230B66E37A0133FF
S1133F30DBB2E372CA6D02F00702A07A984200F085
S1133F4098809642ECD883E704F1250002F0D4F877
S1133F50D0E721464A48FFF772FA79E7484A93695D
S1133F6023F00103936173E7454BDB6D13F4E02FFA
S1133F702AD023697BB1424AE368116F1970E36860
S1133F800133E3602369013B2361D16D11F4E02F18
S1133F901AD0002BF0D1002394F82320214638486E
S1133FA0FFF79AFA94F826301BBB0023A383E36A35
S1133FB0002B3FF462AF216B042098475DE704F1C6
S1133FC0250002F099F852E72369002BE3D02C4A2C
S1133FD0926DC2F3014293423FF64FAF28498A6D76
S1133FE022F44032013B1B0403F4403313438B653A
S1133FF043E704F1250002F07FF8D6E720484FF4A8
S1134000805343610123A38300222146FFF764FA0E
S113401094F826303BB9E36A002B3FF434AF216BAC
S1134020042098472FE704F1250002F065F8F2E731
S113403013484FF400634361012300222146FFF734
S11340404BFA94F8263053B940F20323A383E36A6E
S1134050002B3FF41EAF216B0420984719E704F1AD
S1134060250002F049F8EFE704F1250002F044F8D6
S11340701AE70023E372A372EAE670BD6C00002025
S113408000600640F0B583B006460D46144601A90B
S11340904420FEF76BF94D4B03EB86035C60002173
S11340A021802B796375AB682362EB686362E160FE
S11340B021616160A1606B79E376AB792377A170AC
S11340C0A176AB78A375E17504F1190002F027F825
S11340D01920FFF78BF83E4F384600F0A3FAD7F8C3
S11340E0402122F4FF6222F00602298840F2FE7386
S11340F003EA41031343C7F84031AB78002B52D095
S1134100D7F8243123F4E02343F48033C7F824316F
S1134110E9782E4B03EB860670682D4BD3F82421E7
S113412022F48052C3F82421D3F8542122F001024E
S1134130C3F85421D3F8242122F00802C3F824211F
S1134140D3F8242142F00402C3F82421D3F8242113
S113415042F00202C3F82421D3F8242142F00102E0
S1134160C3F82421D3F8242122F40052C3F82421D3
S113417001752B79A3B1E37E43B9154AD2F81831FE
S113418043F4706343F00403C2F81831E37E012B57
S113419011D00F4AD2F8103143F00103C2F81031A4
S11341A0002003B0F0BD0A4AD2F8243123F4E023FE
S11341B0C2F82431ACE7064AD2F8183143F47063EC
S11341C043F00603C2F81831E3E700BF6C00002097
S11341D00060064038B50546144B03EB80035C6869
S11341E004F1190001F0A5FFE37E73B9637D63B1A7
S11341F00F4BD3F81C2122F00202C3F81C21D3F880
S11342001C2122F00102C3F81C21084800EB8500A0
S113421000244460064AD2F8103123F00103C2F8A6
S113422010311920FEF7EEFF204638BD6C00002047
S113423000600640034B03EB80004368D9605A607A
S1134240002070476C000020034B03EB80004368A0
S113425019619A60002070476C00002010B51B4B58
S113426003EB80035B689C780CB1022010BDD9601D
S11342705A6002221A80DA7E92B11549D1F81821C7
S113428042F4706242F00402C1F81821D1F81021FE
S113429042F00102C1F8102101229A70002010BDE1
S11342A00B49D1F8182142F4706242F00402C1F8BB
S11342B01821D1F8102142F00102C1F81021012285
S11342C09A70FFF775FA002010BD00BF6C00002043
S11342D0006006402DE9F0410F4C04EB8004656852
S11342E0AC7814B10220BDE8F081984617460E461A
S11342F004460123AB76002105F1190001F0BAFE52
S11343003A4631462046FFF7A9FF41462046FFF7CB
S113431035FABDE8F08100BF6C00002010B51B4BDE
S113432003EB80035B689C780CB1022010BD19611B
S11343309A6002221A80DA7E92B101229A70144A9B
S1134340D2F8183143F4706343F00603C2F818310D
S1134350D2F8103143F00103C2F81031002010BD2F
S11343600B49D1F8182142F4706242F00402C1F8FA
S11343701821D1F8102142F00102C1F810210122C4
S11343809A70FFF715FA002010BD00BF6C000020E2
S1134390006006402DE9F0410F4C04EB8004656891
S11343A0AC7814B10220BDE8F081984617460E4659
S11343B004460123AB76002105F1190001F05AFEF1
S11343C03A4631462046FFF7A9FF41462046FFF70B
S11343D0D5F9BDE8F08100BF6C0000200A4B03EB67
S11343E08000436811B1DA7E012A01D01888704731
S11343F05A6822B99A6822B900220A60F6E70A606C
S1134400F4E70A60F2E700BF6C00002008B5074B30
S113441003EB800041684B7D0BB1002008BD4FF4D5
S113442001730B800248FFF730F8F6E76C000020B8
S11344300060064020230380002383700122027160
S1134440C370427183718360C360704738B5734B26
S113445003EB80035C68724BD3F8143113F0040F40
S113446048D16F4BD3F8143113F0010F05D06C4BC6
S1134470D3F8183113F0010F74D1694BD3F8143108
S113448013F0020F06D0664BD3F8183113F0020F65
S113449040F08980624BD3F81421D3F8143113F41B
S11344A0807F00F0A580E37D0133DBB2E375012B4F
S11344B000F095805A4B4FF40072C3F814214FF466
S11344C08072C3F81421D3F8182122F00102C3F832
S11344D018212388022B04BF00232380504920463F
S11344E0FFF774F84E4BD3F8143113F4806F40F097
S11344F0848038BD05464A4BD3F8503113F0010F80
S11345001CD0236A0BB1627D62B9E37E012B0DD00E
S113451000232376E37EABB9637D9BB12846FFF786
S113452047F90FE0616A02209847EEE73C4AD2F867
S1134530183143F00103C2F81831E9E7236A3BB1AB
S1134540627D12B9022323808BE7616A03209847B6
S1134550E37E002BF6D1637D002BF3D02846FFF7D2
S113456027F9EFE7237E13B140F201232380636828
S11345706BB9236A23B1616A01209847636833B930
S113458001232376FF22264BC3F8602175E7E368F5
S11345901A78234BC3F86021E3680133E36063684E
S11345A0013B636069E7A3686BB9236A23B1616A5D
S11345B000209847A36833B940F202232380184BA4
S11345C0D3F8703166E72369154AD2F870211A705E
S11345D0236901332361A368013BA3605AE7A37DE8
S11345E0002B3FF467AF4FF480710D4BC3F81411E7
S11345F012F4007F7FF45EAF74E70123238008493F
S11346004FF48063C1F81431D1F8183123F0010359
S1134610C1F818312046FEF7D9FF38BD6C000020E0
S113462000600640036943F002030361D0F81031CF
S113463043F00203C0F8103100230361C0F81031C5
S1134640704708B50020FFF7F9FB08BD08B5002046
S1134650FFF7FCFE08BD00000023037043707047A1
S11346600023037001224270044941600372C36055
S1134670037443748374C3740275704740420F001B
S113468070B582B006460C46264D05EB80014520E8
S1134690FDF76CFE002002A941F8040DFDF766FE4B
S11346A055F82620019B03EB5203B3FBF2F21346A9
S11346B01D48816841F0020181602AB1013B00BFBD
S11346C000BF00BF002BF9D117498B6823F0020308
S11346D08B601346886840F0010088602AB1013B72
S11346E000BF00BF00BF002BF9D121780E4B9A68A0
S11346F022F008029A609A68002914BF0823002354
S11347001A43094B9A6061789A6822F004029A600D
S11347109B68002914BF042200221343024A9360B9
S113472002B070BD7400002000700340024A936818
S113473023F001039360704700700340024A5369F9
S113474019435161704700BF00700340024A9369E6
S113475019439161704700BF00700340F8B50646E5
S11347600C461746244D05EB80014520FDF7FEFD60
S113477055F82600214A0023A0FB070102F03AFC69
S113478010F1FF3641F1FF37230103F1804303F5B4
S11347905C339B6AC3F38103012B20D0022B24D109
S11347A0012F08BF002E12D30120F8BD144A0023A4
S11347B0BB4208BFB24210D3002F08BFB6F5803FFA
S11347C005D3B0F1011006044FF6FF72164302340C
S11347D024010C4B1E510020F8BD0120F8BD012F0F
S11347E008BF002EE2D30120F8BD012F08BF002E20
S11347F0EDD30120F8BD00BF7400002040420F003B
S1134800FEFF01000070034030B583B030238DF803
S1134810043031238DF8053032238DF806303323EC
S11348208DF807300D4659B9D37C002B40F0AC808D
S1134830564B996A21F002019962996A00230EE0AD
S1134840D47C0B0103F1804303F55C33996A21F0B6
S113485002019962996A002C14BF022300231446B2
S113486019432B0103F1804303F55C3399621278F9
S1134870996A21F00C019962996A920002F00C0283
S11348800A439A626378012B68D06168AB1C1B01F0
S11348903E4AD150227A2B0103F1804303F55C3365
S11348A0996A21F400019962996AD20502F400021E
S11348B00A439A62E268996A21F070619962996A7E
S11348C0120602F070620A439A62217C9A6A22F408
S11348D080229A629A6A002914BF4FF4802300232D
S11348E01A432B0103F1804303F55C339A62617C24
S11348F09A6A22F400329A629A6A002914BF4FF429
S1134900003300231A432B0103F1804303F55C3386
S11349109A62A17C9A6A22F480329A629A6A002985
S113492014BF4FF4803300231A432B0103F1804357
S113493003F55C339A62237DC3B914490B690122E0
S1134940AA4023EA02030B6102AB1D4415F9040CCF
S1134950FEF758FC0023184603B030BD62682946B0
S1134960FFF7FCFE03460028F5D193E7074A1169D7
S11349700123AB400B43136102AB1D4415F9040C36
S1134980FEF734FC0023E6E70123E4E7007003406C
S11349902DE9F84305460E4691461F461A4C04EB92
S11349A080014520FDF7E2FC54F82580174A0023D6
S11349B0A9FB080102F01EFB10F1FF3441F1FF35A1
S11349C0002D08BFB4F5803F17D2A7FB08010F4A9A
S11349D0002302F00FFB10F1FF3041F1FF310029F9
S11349E008BFB0F5803F0BD22204024302363601E1
S11349F0074B9A510020BDE8F8830120BDE8F883F5
S1134A000120BDE8F88300BF7400002040420F007D
S1134A1000700340F8B506460F46404901EB80019B
S1134A204520FDF7A3FC3E49BB1C1B01C8580025CB
S1134A3001EB07118B6AC3F38103012B4DD1002DC8
S1134A4008BFB0F5803F27D3020C002380B20021B9
S1134A50801859414C01420144EAD063121A63EBB5
S1134A6001035C0244EAD25455022A1844EB0103C0
S1134A709D0145EA92659401A21A65EB030380182F
S1134A805941264B53F826200023264C00250019B3
S1134A90694102F0AFFAF8BD441C45F10005690113
S1134AA0620141EAD463121B63EB0503590241EA34
S1134AB0D2515002021941EB0503990141EA926176
S1134AC09001801A61EB0301144B53F82620002354
S1134AD00019694102F08EFAF8BD441C45F1000545
S1134AE06901620141EAD463121B63EB05035902B5
S1134AF041EAD2515002021941EB0503990141EAFE
S1134B0092619001801A61EB0301044B53F8262053
S1134B1000230019694102F06DFAF8BD7400002009
S1134B200070034080841E00F8B506460F462A49EB
S1134B3001EB80014520FDF719FC2849BB1C01EB62
S1134B4003135868044601EB07118B6AC3F381030E
S1134B50012B24D1020C002380B20021141843EB52
S1134B6001056901620141EAD463121B63EB050389
S1134B70590241EAD2515002021941EB050399014D
S1134B8041EA92619001801A61EB0301124B53F8E0
S1134B90262000230019694102F02CFAF8BD0025F3
S1134BA04201C30E121A63EB0503590241EAD251C2
S1134BB05002021941EB0503990141EA9261900107
S1134BC0801A61EB0301044B53F8262000230019DB
S1134BD0694102F00FFAF8BD740000200070034030
S1134BE002310901014B5A50704700BF0070034065
S1134BF043EA02430231090101484350704700BFB0
S1134C0000700340074B8A1C1201985803EB0113F0
S1134C109B6AC3F38103012B04BF83B203EB1040EF
S1134C20704700BF00700340074B8A1C03EB02125D
S1134C30506803EB01139B6AC3F38103012B04BF88
S1134C4083B203EB1040704700700340024A1369BB
S1134C5019431161704700BF00700340024A136991
S1134C6023EA01011161704700700340014BD868C9
S1134C700840704700700340014BD960DB687047FF
S1134C800070034010B50F4B53F820301C7C0CB15E
S1134C90022010BD0C4C54F8200019609A600122C7
S1134CA01A740222DA85836943F4002383618369D9
S1134CB013F4002FFBD00122044900F04AFF002026
S1134CC010BD00BF780000203876000017000300F4
S1134CD0F0B585B01B4B53F82040237C13B1022060
S1134CE005B0F0BD13460A460646174951F8205050
S1134CF022600027A760012121740220E08594F836
S1134D002A00039102930191009705F11C03FDF71A
S1134D1067FC32460D4994F82A00FDF737FB94F8F6
S1134D202A00FDF78FFCAB6943F40023AB61AB6948
S1134D3013F4002FFBD02B6943F400032B610020F4
S1134D40CEE700BF7800002038760000194E00003E
S1134D5038B5144B53F82040134B53F82050EB8DC7
S1134D609BB2022B16D000221049204600F0F1FE1F
S1134D7000220F49204600F0ECFEA36923F400232F
S1134D80A361A36913F4002FFBD100232B74AB7C24
S1134D901BB938BD0023EB85EAE705F12C0001F0CF
S1134DA0ABF9F6E73876000078000020170003001E
S1134DB01600030038B5154B53F82040144B53F834
S1134DC02050236923F40003236195F82A00FDF79A
S1134DD045FC00220F49204600F0BBFEA36923F4E2
S1134DE00023A361A36913F4002FFBD1AB7C43B967
S1134DF0EB8D9BB2022B04BF0023EB8500232B74A5
S1134E0038BD05F12C0001F077F9F1E738760000A0
S1134E10780000201600030038B5194B53F82040E1
S1134E20184B53F8205001290DD0236A1BB1626A34
S1134E30012120469847A3688BB9012212492846CC
S1134E4000F087FE38BD0123E385FFF7B3FF236A33
S1134E50002BF7D0626A03212046984738BD2168A9
S1134E6094F82A00FDF7DAFCA16894F82A00FDF70B
S1134E7045FD0023A36094F82A00FDF7E3FB38BD49
S1134E8078000020387600001600030008B50E4BA9
S1134E9053F820300D4A52F820001A681B7D43B1A4
S1134EA0012B09D01378517843EA012100F028FE40
S1134EB008BD1378037708BD1378517843EA0121BC
S1134EC000F013FE08BD00BF780000203876000013
S1134ED010B5114B53F820305C7C0CB1022010BD8E
S1134EE00E4C54F82040012058745960DA600222B4
S1134EF01A86A36943F48023A361A36913F4802F62
S1134F00FBD00121204600F03DFF01220449204648
S1134F1000F01FFE002010BD78000020387600004D
S1134F20150003002DE9F04385B0224C54F82040CD
S1134F30657C1DB1022005B0BDE8F0830F4606462E
S1134F401D4B53F8205094F829004FF00108CDF878
S1134F500C800292CDF804804FF00009CDF8009047
S1134F600B4605F11C024946FDF73AFB324613494C
S1134F7094F82900FDF70AFA94F82900FDF762FB7A
S1134F806760C4F80C9084F8118002232386AB690F
S1134F9043F48023AB61AB6913F4802FFBD0012170
S1134FA0284600F0EFFE2B6943F400132B61002028
S1134FB0C1E700BF78000020387600008950000067
S1134FC038B5154B53F82050144B53F82040A369BF
S1134FD023F48023A361A36913F4802FFBD1002160
S1134FE0204600F0CFFEE36900220D49204600F080
S1134FF0B0FDEB7C43B900236B742B8E9BB2022B68
S113500004BF00232B8638BD05F12B0001F074F892
S11350100023EB74EFE700BF78000020387600002F
S11350201500030038B5164B53F82040154B53F8C0
S11350302050A36923F48023A361A36913F4802F70
S1135040FBD10021204600F09DFE236923F40013C8
S11350502361E36995F82900FDF700FBEB7C43B974
S11350602B8E9BB2022B04BF00232B8600236B7470
S113507038BD05F12B0001F03FF80023EB74EFE796
S1135080387600007800002070B50546254B53F8AB
S11350902040254B53F82060012904D0238E9BB275
S11350A0022B13D070BD01232386FFF7BBFFA36936
S11350B01BB1E269032120469847736923F0C0239A
S11350C023F4F81343F470237361E7E7A3691BB176
S11350D0E269002120469847E3688BB92846FFF728
S11350E0A1FFA3691BB1E2690221204698477369B5
S11350F023F0C02323F4F81343F470237361D1E73E
S1135100616894F82900FDF7C6FBE16894F829006A
S1135110FDF7F4FB0023E36094F82900FDF792FA0D
S113512070BD00BF780000203876000010B582B052
S1135130134B53F82030134A52F820005C681B7D4F
S113514073B1012B0FD00DF1060100F0F3FCBDF893
S113515006302370BDF806301B0A637002B010BD20
S1135160C3692370FAE70DF1060100F0DAFCBDF81B
S113517006302370BDF806301B0A6370EEE700BFEB
S113518078000020387600000123C3714FF41653D1
S11351900360002303714371837103724372704788
S11351A0F0B583B00646164B53F82050154A52F812
S11351B02070034401A9187BFDF7D8F8124C21464E
S11351C0284600F023FD0028F9D007F12B0000F059
S11351D0B0FF07F12C0000F0ACFF094B334493F906
S11351E010402046FEF70EF8002208492046FDF73D
S11351F0DDFF0020034B43F8260003B0F0BD00BFE1
S11352003876000078000020160002001D0500001A
S1135210034B53F8203098699961DA61704700BFF5
S113522078000020034B53F82030186A19625A6240
S1135230704700BF7800002070B505461E46144B29
S113524053F820400123A37494F82830012B05D08F
S1135250FFF73EFD28B1E08D80B270BDFFF712FD6F
S1135260F8E7314604F12C0000F004FF0328F2D1E2
S11352700023A3740323E38594F82830012B03D07F
S11352802846FFF797FDE6E72846FFF761FDE2E7CA
S1135290780000202DE9F8431C4B53F8208098F83F
S11352A0103013B10220BDE8F88381460F4616463C
S11352B0174B53F82040A36943F40023A361A36967
S11352C013F4002FFBD0B6B1124D02E00237023EB8
S11352D08EB12946204600F099FC0028F9D0C8F880
S11352E000704846FFF7D2FD98F81430002BEDD13A
S11352F00137013EECE7A36923F40023A361A3690A
S113530013F4002FFBD10020BDE8F88378000020BF
S1135310387600001700020010B5074B53F8203010
S113532000249C7493F82830012B02D0FFF7D0FCA2
S113533010BDFFF7A7FC10BD7800002038B50C4B5A
S113534053F8204089B10D46227C62B194F828209C
S1135350012A05D094F82A00FDF7DAFA286004E05F
S1135360A2680A6001E000220A60E08D80B238BDC4
S11353707800002008B5094B53F820301A7C42B15C
S113538040F20262DA8593F82830012B03D0FFF74C
S113539011FD002008BDFFF7DBFCFAE778000020D0
S11353A070B505461E46144B53F820400123E374A0
S11353B094F82830012B05D0FFF7B4FD28B1208ED6
S11353C080B270BDFFF784FDF8E7314604F12B008D
S11353D000F050FE0328F2D10023E3740323238654
S11353E094F82830012B03D02846FFF71BFEE6E78C
S11353F02846FFF7E5FDE2E7780000202DE9F84FA5
S1135400494B53F8208098F8113013B10220BDE8BD
S1135410F88F81460F461646444B53F82040A36943
S113542043F48023A361A36913F4802FFBD0002EDF
S11354306BD03F4DDFF804A1DFF804B119E0023767
S1135440023E5146204600F0E1FB20BB594620466F
S113545000F0DCFB70BB3749204600F0D7FB002886
S113546037D13549204600F0D1FB002840D1002E29
S11354704BD02946204600F0C9FB0028F9D0C8F8D3
S113548004704846FFF752FE98F81430002BD6D12A
S11354900137013ED5E7A36923F48023A361A369FF
S11354A013F4802FFBD12549204600F0D3FB40F2B2
S11354B0036033E0A36923F48023A361A36913F495
S11354C0802FFBD11E49204600F0C4FB40F205604A
S11354D024E0A36923F48023A361A36913F4802F38
S11354E0FBD11449204600F0B5FB40F2046015E0FE
S11354F0A36923F48023A361A36913F4802FFBD150
S11355000D49204600F0A6FB5EB9A36923F480236D
S1135510A361A36913F4802FFBD10020E369BDE8E4
S1135520F88F40F20160F9E7780000203876000037
S11355301500020010000200130002001100020016
S11355401200020010B5074B53F820300024DC741D
S113555093F82830012B02D0FFF7E4FC10BDFFF7CD
S1135560B7FC10BD7800002038B50C4B53F8204030
S113557089B10D46627C62B194F82820012A05D0D5
S113558094F82900FDF7C4F9286004E0E2680A6091
S113559001E000220A60208E80B238BD780000202D
S11355A008B5094B53F820305A7C42B140F20262EC
S11355B01A8693F82830012B03D0FFF733FD00201F
S11355C008BDFFF7FDFCFAE778000020384B53F8DC
S11355D020303BB11A7C0AB1022070475B7C0BB1CE
S11355E0022070472DE9F04182B00C46314B53F84C
S11355F02050184401A9007BFCF7B8FE01984FEA3B
S1135600840CB0FBFCFC1FFA8CFC4FEA8C07B0FB4B
S1135610F7F7BC4234BF3F1BE71BB0FBF4F8B8F10B
S1135620200F28BF4FF02008B8F1040F38D9052601
S11356304FF0040E324604E0013292B2164642455F
S113564013D806FB04F1B0FBF1F18BB202FB03F3B8
S1135650B0FBF3F39C4234BF1B1BE31ABB42EBD8F1
S11356601FFA81FC1F46B646E6E7BEF1070F19D9BB
S11356702A6922F0F8520EF1FF331B0603F0F853A7
S113568013432B612B6923F4FF5323F01F03CCF343
S11356900C0C4CEA03032B61002002B0BDE8F0813E
S11356A04FF0040E2B6943F400332B61E0E700BF95
S11356B07800002038760000F0B583B006460C462A
S11356C01546314B53F82070034401A9187BFCF7AD
S11356D04DFE631E04F13301002203F8012F8B42B7
S11356E0FBD12A4B43F82640EB7984F82830AB7978
S11356F023752B7A84F829306B7A84F82A3038465B
S113570000F0BAF929683046FFF760FF2B7993B3AC
S11357100122A979384600F0C1F92979384600F008
S1135720D5F93B696A7923F4005343EA42333B6178
S11357300025E5852586294604F12B0000F0EFFCC1
S11357400746294604F12C0000F0E9FC012F18D08B
S113575001280ED00C4B334493F910402A460C4BCD
S113576053F826102046FDF721FD2046FDF73EFDA7
S1135770284603B0F0BD0022A979384600F08EF91E
S1135780CBE73846F5E700BF387600007800002004
S1135790B494FF1F30B583B00C460B4B53F8205024
S11357A0034401A9187BFCF7E1FD29692A69C1F3C7
S11357B00461C2F30C0301FB0333019AB2FBF3F35C
S11357C0236003B030BD00BF38760000034B53F8AC
S11357D0203019609A600020704700BF78000020D4
S11357E0034B53F820305960DA600020704700BF43
S11357F078000020F8B50646934B53F82040934BAD
S113580053F820509249204600F000FAB8B140F213
S113581001632B8695F82830012B79D03046FFF7A9
S113582001FCAB691BB1EA69032128469847636907
S113583023F0C02323F4F81343F4702363618549F0
S1135840204600F0E3F9B8B140F203632B8695F8E3
S11358502830012B60D03046FFF7E4FBAB691BB165
S1135860EA69032128469847636923F0C02323F497
S1135870F81343F4702363617749204600F0C6F9B6
S1135880B8B140F204632B8695F82830012B47D039
S11358903046FFF7C7FBAB691BB1EA690321284611
S11358A09847636923F0C02323F4F81343F4702367
S11358B063616A49204600F0A9F9B8B140F2056372
S11358C02B8695F82830012B2ED03046FFF7AAFB03
S11358D0AB691BB1EA69032128469847636923F041
S11358E0C02323F4F81343F4702363615C49204616
S11358F000F067F9E0B95B49204600F062F900283E
S113590047D15949204600F05CF9002879D1F8BD07
S11359103046FFF755FB84E73046FFF751FB9DE720
S11359203046FFF74DFBB6E73046FFF749FBCFE7BC
S11359304E49204600F06AF90028DCD0434B53F866
S113594026503046FFF7F2FB2B7DDBB96B68013341
S11359506B60EB68013BEB60EB682BB9AB691BB187
S1135960EA69002128469847EB68002BC3D13046EA
S1135970FFF726FBAB69002BBDD0EA69022128465C
S11359809847B8E76B6802336B60EB68023BEB60E7
S1135990E2E73749204600F039F90028B1D02B4B13
S11359A053F82650AB68002BABD0274B53F8267026
S11359B03046FFF76BFA2B7DE3B92B6801332B607C
S11359C0AB68013BAB60AB68002B9AD12B6A1BB16F
S11359D06A6A012128469847AB68002B91D10022BE
S11359E02049384600F0B5F801221F49384600F036
S11359F0B0F886E72B6802332B60AB68023BAB60E0
S1135A00E1E71C49204600F001F900283FF47FAF8C
S1135A100E4B53F82640A368002B7FF478AF94F81C
S1135A202830012B0BD03046FFF7C4F9236A002B32
S1135A303FF46DAF626A02212046984767E730461B
S1135A40FFF786F9F2E700BF3876000078000020FF
S1135A5013000200110002001000020012000200F4
S1135A6015000300170003001600030015000200D0
S1135A701700020016000200064B0361064B436147
S1135A8000238361036243624FF470328262C36213
S1135A90704700BF0400000F00C01FC010B40C46C4
S1135AA002B14C1C022C0CD0836923F0100343EA8E
S1135AB004138361036923F0005303615DF8044B0D
S1135AC07047036943F000530361F7E7826901F00B
S1135AD0FE0322F0020213438361836923F001036E
S1135AE001F001011943816170478369C1F3002208
S1135AF023F0804343EA82738361C9B2017770471C
S1135B00836923F08043C1F3002243EA827323F0C4
S1135B100043C1F3402243EAC2738361C9B20177EF
S1135B2070478369DB0F1B020B80C269D2B2134337
S1135B300B80704783695B0D03F400730B808269EB
S1135B40D20F43EA02230B80C269D2B213430B8003
S1135B50704710B48BB2090C013906290ED8DFE85E
S1135B6001F0040D100D0D1A2400016901249C405C
S1135B7021EA040102FA03F30B4303615DF8044BC9
S1135B807047816901249C4021EA040102FA03F36D
S1135B900B438361F2E7416A01249C4021EA04013A
S1135BA002FA03F30B434362E8E7816A01249C4051
S1135BB021F4403121EA040102FA03F30B43836226
S1135BC0DCE70B0C013B062B1ED8DFE803F0041DB9
S1135BD00B1D1D111700036988B223FA00F000F0B1
S1135BE001007047806989B2C84000F00100704725
S1135BF0406A89B2C84000F001007047806A89B2E7
S1135C00C84000F001007047002070470B0C023BB5
S1135C10052B1DD8DFE803F0031C0A1C101643698A
S1135C2088B223FA00F000F001007047C06989B21D
S1135C30C84000F001007047406A89B2C84000F0D3
S1135C4001007047806A89B2C84000F001007047C3
S1135C5000207047474B994250D023D8033B9942C8
S1135C6060D00FD8023B994270D0013399427FD162
S1135C70436923F0C02323F4F81343F4004343613E
S1135C80002070473C4B994242D0013399426FD176
S1135C90436923F0C02323F4F81343F480234361BE
S1135CA000207047354B994246D00FD80B3B9942A0
S1135CB01AD00A3399425BD1436923F0C02323F4F9
S1135CC0F81343F080434361002070472C4B994202
S1135CD046D0013399424BD1836A23F4403343F4D1
S1135CE00033836200207047436923F0C02323F408
S1135CF0F81343F48013436100207047436923F091
S1135D00C02323F4F81343F40023436100207047B5
S1135D10436923F0C02323F4F81343F400334361AD
S1135D2000207047436923F0C02323F4F81343F49D
S1135D308033436100207047436923F0C02323F478
S1135D40F81343F00043436100207047436923F094
S1135D50C02323F4F81343F48043436100207047C5
S1135D60836A23F4403343F4803383620020704712
S1135D700120704713000200110002001F000200FE
S1135D801000070038B505460C460A460949FFF7D6
S1135D90E0FE224608492846FFF7DBFE2246074973
S1135DA02846FFF7D6FE224605492846FFF7D1FECE
S1135DB038BD00BF1B000300180003001A000300D5
S1135DC01900030008B50020FFF714FD08BD08B54D
S1135DD00120FFF70FFD08BD08B50220FFF70AFDFB
S1135DE008BD7047002954D02DE9F04788B00F460C
S1135DF0531E9BB21F2B03D9032008B0BDE8F087C4
S1135E008318B3F5007F01D90320F6E7002A42D0B6
S1135E10164680460025A9464FF0190A08EB0503EB
S1135E209BB2C3F3002141F05001741BA2B203F0F2
S1135E300F04C4F11004A4B2944228BF14468DF890
S1135E400C3074B16B1E3B440DF10D0204F1FF3CA8
S1135E5015FA8CFCBC4413F8010F02F8010B6345DE
S1135E60F9D14A464846FDF7A1FECDF800A001232A
S1135E70E21803A94846FDF7DBFE40B92544ADB25C
S1135E80062000F0B9F8AE42C8D80020B5E70120DA
S1135E90B3E7032070470020AFE7B1B3F0B585B096
S1135EA00E46531E9BB21F2B02D9032005B0F0BD32
S1135EB08318B3F5007F01D90320F7E7144605469C
S1135EC00021304601F022FA04AF07F8015DC5F362
S1135ED00021002241F050011046FDF767FE19230E
S1135EE000930023012239461846FDF7A1FE08B1AC
S1135EF00120DBE732230093012322463146FDF7DC
S1135F0041FF003018BF0120D0E70320704728B3B9
S1135F100346D1B110B40138013913FA81F1FF23DA
S1135F20082401E0884214D010F8012F534022467F
S1135F3013F0800F4FEA4303DBB218BF83F01D0355
S1135F40013A12F0FF02F3D1ECE7FF23DB43D8B2AE
S1135F507047DB43D8B25DF8044B704700207047AC
S1135F6008B5FAF71FFB01210020FEF785FE08BDE6
S1135F7008B5FAF735FB08BD08B5FAF713FB08BDF9
S1135F8008B50B4A00210846FEF73EFC0F213020DD
